{
  "contractName": "MetaCoin",
  "abi": [
    {
      "inputs": [],
      "payable": false,
      "stateMutability": "nonpayable",
      "type": "constructor"
    },
    {
      "anonymous": false,
      "inputs": [
        {
          "indexed": true,
          "name": "_from",
          "type": "address"
        },
        {
          "indexed": true,
          "name": "_to",
          "type": "address"
        },
        {
          "indexed": false,
          "name": "_body",
          "type": "string"
        }
      ],
      "name": "Transfer",
      "type": "event"
    },
    {
      "constant": true,
      "inputs": [
        {
          "name": "str",
          "type": "string"
        }
      ],
      "name": "utfStringLength",
      "outputs": [
        {
          "name": "length",
          "type": "uint256"
        }
      ],
      "payable": false,
      "stateMutability": "pure",
      "type": "function"
    },
    {
      "constant": false,
      "inputs": [
        {
          "name": "title",
          "type": "string"
        },
        {
          "name": "body",
          "type": "string"
        }
      ],
      "name": "sendBlog",
      "outputs": [
        {
          "name": "sufficient",
          "type": "bool"
        }
      ],
      "payable": false,
      "stateMutability": "nonpayable",
      "type": "function"
    },
    {
      "constant": true,
      "inputs": [
        {
          "name": "addr",
          "type": "address"
        }
      ],
      "name": "getBalanceInEth",
      "outputs": [
        {
          "name": "",
          "type": "uint256"
        }
      ],
      "payable": false,
      "stateMutability": "view",
      "type": "function"
    },
    {
      "constant": true,
      "inputs": [
        {
          "name": "addr",
          "type": "address"
        }
      ],
      "name": "getBalance",
      "outputs": [
        {
          "name": "",
          "type": "uint256"
        }
      ],
      "payable": false,
      "stateMutability": "view",
      "type": "function"
    }
  ],
  "bytecode": "0x6060604052341561000f57600080fd5b6127106000803273ffffffffffffffffffffffffffffffffffffffff1673ffffffffffffffffffffffffffffffffffffffff16815260200190815260200160002081905550610800806100636000396000f300606060405260043610610062576000357c0100000000000000000000000000000000000000000000000000000000900463ffffffff16806302c9adad146100675780630326c06b1461011f5780637bd703e814610190578063f8b2cb4f146101dd575b600080fd5b341561007257600080fd5b610105600480803590602001908201803590602001908080601f0160208091040260200160405190810160405280939291908181526020018383808284378201915050505050509190803590602001908201803590602001908080601f0160208091040260200160405190810160405280939291908181526020018383808284378201915050505050509190505061022a565b604051808215151515815260200191505060405180910390f35b341561012a57600080fd5b61017a600480803590602001908201803590602001908080601f0160208091040260200160405190810160405280939291908181526020018383808284378201915050505050509190505061032e565b6040518082815260200191505060405180910390f35b341561019b57600080fd5b6101c7600480803573ffffffffffffffffffffffffffffffffffffffff169060200190919050506106d0565b6040518082815260200191505060405180910390f35b34156101e857600080fd5b610214600480803573ffffffffffffffffffffffffffffffffffffffff16906020019091905050610778565b6040518082815260200191505060405180910390f35b60006102358361032e565b600010151561024357600080fd5b61024c8261032e565b600010151561025a57600080fd5b3373ffffffffffffffffffffffffffffffffffffffff163373ffffffffffffffffffffffffffffffffffffffff167f55e10366a5f552746106978b694d7ef3bbddec06bd5f9b9d15ad46f475c653ef846040518080602001828103825283818151815260200191508051906020019080838360005b838110156102ea5780820151818401526020810190506102cf565b50505050905090810190601f1680156103175780820380516001836020036101000a031916815260200191505b509250505060405180910390a36001905092915050565b6000806103396107c0565b600091508390505b80518210156106c95760007f0100000000000000000000000000000000000000000000000000000000000000026007828481518110151561037e57fe5b9060200101517f010000000000000000000000000000000000000000000000000000000000000090047f0100000000000000000000000000000000000000000000000000000000000000027effffffffffffffffffffffffffffffffffffffffffffffffffffffffffffff19169060020a90047effffffffffffffffffffffffffffffffffffffffffffffffffffffffffffff19161415610424576001820191506106bc565b60067f0100000000000000000000000000000000000000000000000000000000000000026005828481518110151561045857fe5b9060200101517f010000000000000000000000000000000000000000000000000000000000000090047f0100000000000000000000000000000000000000000000000000000000000000027effffffffffffffffffffffffffffffffffffffffffffffffffffffffffffff19169060020a90047effffffffffffffffffffffffffffffffffffffffffffffffffffffffffffff191614156104fe576002820191506106bb565b600e7f0100000000000000000000000000000000000000000000000000000000000000026004828481518110151561053257fe5b9060200101517f010000000000000000000000000000000000000000000000000000000000000090047f0100000000000000000000000000000000000000000000000000000000000000027effffffffffffffffffffffffffffffffffffffffffffffffffffffffffffff19169060020a90047effffffffffffffffffffffffffffffffffffffffffffffffffffffffffffff191614156105d8576003820191506106ba565b601e7f0100000000000000000000000000000000000000000000000000000000000000026003828481518110151561060c57fe5b9060200101517f010000000000000000000000000000000000000000000000000000000000000090047f0100000000000000000000000000000000000000000000000000000000000000027effffffffffffffffffffffffffffffffffffffffffffffffffffffffffffff19169060020a90047effffffffffffffffffffffffffffffffffffffffffffffffffffffffffffff191614156106b2576004820191506106b9565b6001820191505b5b5b5b8280600101935050610341565b5050919050565b600073__ConvertLib____________________________6396e4ee3d6106f584610778565b60026000604051602001526040518363ffffffff167c0100000000000000000000000000000000000000000000000000000000028152600401808381526020018281526020019250505060206040518083038186803b151561075657600080fd5b6102c65a03f4151561076757600080fd5b505050604051805190509050919050565b60008060008373ffffffffffffffffffffffffffffffffffffffff1673ffffffffffffffffffffffffffffffffffffffff168152602001908152602001600020549050919050565b6020604051908101604052806000815250905600a165627a7a72305820ee8647312d3a6547dde75e1a25e3a34091e2811fa6536c3c330a51a45663a1fa0029",
  "source": "pragma solidity ^0.4.17;\n\nimport \"./ConvertLib.sol\";\n\n// This is just a simple example of a coin-like contract.\n// It is not standards compatible and cannot be expected to talk to other\n// coin/token contracts. If you want to create a standards-compliant\n// token, see: https://github.com/ConsenSys/Tokens. Cheers!\n\ncontract MetaCoin {\n\tmapping (address => uint) balances;\n\n\t//event Transfer(address indexed _from, string _title, string _body);\n\tevent Transfer(address indexed _from, address indexed _to, string _body);\n\n\tfunction MetaCoin() public {\n\t\tbalances[tx.origin] = 10000;\n\t}\n\n    function utfStringLength(string str) pure public\n    returns (uint length)\n    {\n        uint i=0;\n        bytes memory string_rep = bytes(str);\n\n        while (i<string_rep.length)\n        {\n            if (string_rep[i]>>7==0)\n                i+=1;\n            else if (string_rep[i]>>5==0x6)\n                i+=2;\n            else if (string_rep[i]>>4==0xE)\n                i+=3;\n            else if (string_rep[i]>>3==0x1E)\n                i+=4;\n            else\n                //For safety\n                i+=1;\n\n            length++;\n        }\n    }\n\n    function sendBlog(string title, string body) public returns(bool sufficient) {\n        require(0 < utfStringLength(title));\n        require(0 < utfStringLength(body));\n\t\tTransfer(msg.sender, msg.sender, body);\n\t\treturn true;\n    }\n\n\tfunction getBalanceInEth(address addr) public view returns(uint){\n\t\treturn ConvertLib.convert(getBalance(addr),2);\n\t}\n\n\tfunction getBalance(address addr) public view returns(uint) {\n\t\treturn balances[addr];\n\t}\n}\n",
  "sourcePath": "/Users/yoheitaonishi/block_chain/blog/contracts/MetaCoin.sol",
  "compiler": {
    "name": "solc",
    "version": "0.4.19+commit.c4cbbb05.Emscripten.clang"
  },
  "schemaVersion": "2.0.0",
  "updatedAt": "2018-05-01T17:01:30.049Z"
}